:1000000000308A001928000026308400831300087D
:10001000031918280130F800F701F70B0D28F80B29
:100020000C284A30F700F70B13281628800B0A28F3
:10003000080003081F39830083161F149F141F151F
:100040009F1183130912831290010030F80092006F
:100050000030831692001F149F141F159F118312E6
:100060001F10F03097059D05033083168500003082
:10007000860083128601051C56280130A100A201CA
:100080002208073C031C5528210886000230A500E1
:10009000FA30A6000420A50B48280310A10D05186E
:1000A000552885185528A20A40287028851C7028D4
:1000B0008030A300A4012408073C031C70282308F7
:1000C00086000230A500FA30A6000420A50B6328A4
:1000D0000310A30C8518702805187028A40A5B2843
:0400E0003B28630056
:02400E003A3F37
:00000001FF
;PIC16F877
;CRC=7275  CREATED="04-Kas-21 14:51"
