:1000000004308A00B82C00000C22E933693ABA1295
:10001000EC3A00000A2B6F36F4306A1D2517333393
:10002000560034308400831300080319252801305A
:10003000F800F701F70B1A28F80B19284A30F700D7
:10004000F70B20282328800B172808003B0EF039D7
:10005000F7000F30060577048600000006143028EC
:10006000061008000608F700060E0F39F800080011
:100070008316061086100611831286100F30831621
:100080000605F038860083120615000006140000ED
:1000900032207808BB000610000006140000322051
:1000A0007808BA0006100F30831606058600831202
:1000B0003B0EF700F030F70577083A04F8007808AF
:1000C000BA00BA1B3E28381C861038188614000067
:1000D000061100000610390EBA000F30BA053A08B2
:1000E000BB00262039080F39BA00BB0026200800C3
:1000F0002830A7000C30A8000130A9000630AA0063
:100100000610861006110F308316060586000610AD
:10011000861006110F308312B40011200130A600A2
:100120002608033C031C9C280330BB002620053016
:10013000B4001120A60A90280230BB00262005300A
:10014000B4001120A6012608033C031CB328273065
:100150002607840083130008AB00B8012B08B90000
:100160003820A60AA3288A110A12E22C8E30F70042
:100170002708F8002608F900FA01F808031DCA2824
:100180007908F800F9010830F702F808031DCA28B9
:10019000F701D2280310F81BD128F90DF80DF70349
:1001A000CA28F8138A110A12FB2C330803194529AF
:1001B000BB00370803194529BB070318E6287F3021
:1001C000BB02031C452903194529EA288130BB07D6
:1001D000031845293B08F700F801F901FA01340832
:1001E000BF00BF173508BE003608BD001830BB0081
:1001F000BC013D1C13293A08FA07031C0529F90A1A
:10020000031D0529F80A0319BC173908F907031C4F
:100210000C29F80A0319BC173808B500B5173508BA
:10022000F8070318BC17BC0DF80CF90CFA0CBF0C3E
:10023000BE0CBD0C0310BB0BF8280130F7070318E8
:100240004529F81B2A29BF0DFA0DF90DF80DF70302
:1002500003194529BF1F3B29FA0A031D3B29F90A47
:10026000031D3B29F80A031D3B29F80CF90CFA0C75
:10027000F70A031945293408BC003808BC06BC1F1E
:100280004329F8174929F8134929F701F801F90119
:10029000FA01080080308318AB06B001B1012708CD
:1002A000AF002B08AF06260803193A2AAE00F70064
:1002B0002A080319432AAE020319DF29031C9D29CA
:1002C0002B08B400B4172C08B3002D08B200B101FC
:1002D0000310B40CB30CB20CB10CAE0B6729AF1FFA
:1002E00074293014572A30102E103016293084000B
:1002F00083136C2A3012AF1B87292E1C9229B40C51
:10030000B30CB20CB10CF70A0319522A9229B41B90
:1003100095290310B10DB20DB30DB40DF7030319F8
:10032000522A87293017FF2930132708AF00AF1F43
:100330009B29B4174B2AB4134B2A2A08AE00F700A6
:100340002608AE022708B400B4172808B30029080D
:10035000B200B1010310B40CB30CB20CB10CAE0B73
:10036000A929AF1FB629B014572AB0102E10B01605
:100370002D30840083136C2AB012AF1BC9292E1CA8
:10038000D429B40CB30CB20CB10CF70A0319522ADD
:10039000D429B41BD7290310B10DB20DB30DB40D80
:1003A000F7030319522AC929B017FF29B0132B08E4
:1003B000AF00AF1FDD29B4174B2AB4134B2A2B080B
:1003C000B400B4172C08B3002D08B200AF1FEC29FD
:1003D000B4133015572A3011B1012E102930840082
:1003E00083136C2AAF1B152A2708AF002E1CFF2988
:1003F000B40CB30CB20CB10CF70A0319522AB11F9A
:10040000102AB20A031D102AB30A031D102AB40AC7
:10041000031D102AB40CB30CB20CF70A0319522AAC
:10042000301B9429B01BD629342A8030B406B41F5F
:100430001D2A572A2B08AF002A2A2708AF00B40824
:10044000031D2A2AB308031D2A2AB208031D2A2ADB
:10045000F7014B2AB41B342A0310B10DB20DB30DB2
:10046000B40DF70B2A2A522AAF1F382AB4174B2A89
:10047000B4134B2A2A08F7002B08B4002C08B30049
:100480002D08B2004B2A2608F7002708B4002808D8
:10049000B3002908B2003408F8003308F900320824
:1004A000FA008A2AF701F801F901FA018A2AB10152
:1004B000B209B309B409B109B10A031D652AB20A28
:1004C000031D652AB30A0319B40A30187329B0183A
:1004D000B5293019EB291A2A0008B207031C762A1D
:1004E000B30A031D762AB40A03192E1484030008E4
:1004F000B307031C7E2AB40A03192E1484030008D0
:10050000801F803AB40703182E14301A7A29B01AC3
:10051000BC29F2298A110A121A2D350B902A932A26
:100520004030B600942AB60101303402B6073608CE
:100530008038B700B8013708B90038200800330800
:10054000073A0319AD2A0B3A0319B22A063A0319DE
:10055000BA2A023A0319C02AC52A0130B400B500EC
:100560008D22CA2AB8010130B90038200230B40007
:100570001120CA2A0130B4000230B5008D22CA2AE7
:10058000B8011030B9003820CA2A0130B800330849
:10059000B900382008000B08A7008B138316031737
:1005A0008C170C140000000083120313A71B8B1779
:1005B0000318022B03170C087F390313A700031736
:1005C0000D080313A80003170F080313A900270839
:1005D000B3009F22280803178D000313290803176F
:1005E0008F0003130B08AA008B13831603178C17B5
:1005F0000C140000000083120313AA1B8B17A60B18
:10060000022B212B03170C0D0E0D7F390313A700AE
:1006100003170D080313A80003170F080313A900FD
:100620002708B3009F22280803178D000313290809
:1006300003178F008D0A03198F0A03100313A60BEB
:10064000CB2A0800AE010408AD002E10831B2E1427
:10065000270EF038A900A907E23EAA00323EAC00FE
:1006600027080F39AA07AA07AC07E93EAB00AB077A
:10067000AB07260E0F39AB07AC07AB0DAC0DAC09C1
:10068000AC0D26080F39AC07A90D0730A8000A30B9
:10069000AC07AB03031C482BAB07AA03031C4C2B72
:1006A000AA07A903031C502BA907A803031C542B5A
:1006B00028308400831307302D052D1384072C3038
:1006C000040203192D170008F700031D6F2B2D1BC3
:1006D0006F2B2D1A812BAD196F2B2030722BAD157E
:1006E0002D123030F707A7010408A6002710831B3E
:1006F00027147708B3009F22260884008313271845
:100700008317840A2D1F5F2B8A110A12332D831839
:100710008C2B3B3084008313F701F801F901FA01B7
:10072000BB01BC01BD01BE013A08390438043704DD
:100730000319CA2B2030BF000310B30DB40DB50D43
:10074000B60DBB0DBC0DBD0DBE0D3A083E02031D1E
:10075000B32B39083D02031DB32B38083C02031D9F
:10076000B32B37083B02031CC42B3708BB023808E5
:10077000031C380FBC023908031C390FBD023A08AC
:10078000031C3A0FBE020314F70DF80DF90DFA0D14
:10079000BF0B9C2B3B088000840A3C088000840A25
:1007A0003D088000840A3E08800008000408AB0071
:1007B0002A08AD000319F52B2908B6002808B50052
:1007C0002708B4002608B300BA01B9012030B800E8
:1007D0008230B700D5207A08A9007908A8007808E7
:1007E000A7007708A600AD0BDC2B2908B600280867
:1007F000B5002708B4002608B3003308B63CB300A0
:10080000FA013408B700B4170310B40CB50CB60CD9
:10081000FA0CF90CF80CF70CB30B042CB71F1B2CBB
:10082000F709F809F909FA09F70A0319F80A031987
:10083000F90A0319FA0A7A08A9007908A8007808C1
:10084000A7007708A600A91F322CAB03AB16A60998
:10085000A709A809A909A60A0319A70A0319A80A3A
:100860000319A90A3B30B2009A30B100CA30B00077
:10087000AF010A30AD002A080319AB0A83142630F1
:10088000840083132908B6002808B5002708B4009F
:100890002608B3003208BA003108B9003008B800A1
:1008A0002F08B70087237808F708031D6A2C2A0A47
:1008B0002D0203196A2C2B0803196C2C0F392D02F9
:1008C0000319642C03189C2CAB1B9C2C2B1B6C2C2D
:1008D0002030982C2030AB05AB1E7A2CAB122A08A6
:1008E000031DAB037708AB002D30B3009F222B080C
:1008F000F700AB012A082D02031D882C7708AB00F6
:100900002E30B3009F222B08F7002030AB050030BB
:100910003030AB1E982CAB122A08031DAB037708AE
:10092000AB002D30B3009F222B08F700AB01303015
:10093000F7077708B3009F2283103208B60031080A
:10094000B5003008B4002F08B300BA01B901B801EE
:100950000A30B70087237A08B2007908B100780816
:10096000B0007708AF00AD0B3E2C8A110A124A2D59
:1009700003081F39830083161F149F141F159F112E
:1009800083130912831290010030F80092000030A6
:1009900083169200F030831297059D058316091483
:1009A000891409150030860083121F139F178316C0
:1009B0009F1783121F1483161F109F101F119F155E
:1009C000831278282830F8001F08C73978049F0060
:1009D0000630F700F70BEA2C00001F151F19EE2C4C
:1009E00083161E088312A0001E08A1002108A7007C
:1009F0002008A600B6280830B6002030B500B401A3
:100A00007630B3007A08BA007908B9007808B800DF
:100A10007708B700D5208310A901A801A7017F306E
:100A2000A6007A08AD007908AC007808AB0077081A
:100A3000AA004A297A08A5007908A4007808A3002A
:100A40007708A200043003178D0000308F000310D8
:100A500007300313A600CB22103084002108A70022
:100A60002008A600222B0A3003178D0000308F00CB
:100A7000031008300313A600CB2289308400250818
:100A8000A9002408A8002308A7002208A600033014
:100A9000AA00D62B5630B3009F220230A600FA30AF
:0C0AA000B4001120A60B4F2DE22C6300C7
:02400E003A3F37
:00000001FF
;PIC16F877
;CRC=1BD5  CREATED="04-Kas-21 18:09"
