:1000000002308A001A2A00008C29D4225010CB27F3
:100010004E2AD2274C172E1700008C20E4346D1086
:100020003D10A53A2005C42AD22A4D10A0162D1F36
:100030003E008C20E4346D103D10A53A2005C42A02
:10004000D22A4D10201EBC162D008C20E4346D10D9
:100050003D10A53A2005C42AD22A4D102021CF29CF
:1000600000018C20E4346D103D10A53A2005C42A0F
:10007000D22A4D10A011C820D420000127308400BE
:1000800083130008031952280130F800F701F70B19
:100090004728F80B46284A30F700F70B4D28502820
:1000A000800B442808002E0EF039F7000F300605AB
:1000B00077048600000006145D2806100800060874
:1000C000F700060E0F39F800080083160610861098
:1000D0000611831286100F3083160605F03886004D
:1000E000831206150000061400005F207808AE0099
:1000F00006100000061400005F207808AD0006100E
:100100000F3083160605860083122E0EF700F0309E
:10011000F70577082D04F8007808AD00AD1B6B28B3
:100120002B1C86102B1886140000061100000610E8
:100130002C0EAD000F30AD052D08AE0053202C085D
:100140000F39AD00AE00532008002830A3000C305A
:10015000A4000130A5000630A60006108610061186
:100160000F308316060586000610861006110F3024
:100170008312A7003E200130A2002208033C031C8A
:10018000C9280330AE0053200530A7003E20A20A44
:10019000BD280230AE0053200530A7003E20A2014A
:1001A0002208033C031CE028233022078400831329
:1001B0000008A700AB012708AC006520A20AD028E0
:1001C0008A110A12412A280BE628E9284030A900A2
:1001D000EA28A90101302702A90729088038AA00C6
:1001E000AB012A08AC00652008002608073A03196D
:1001F00003290B3A03190829063A03191029023A70
:10020000031916291B290130A700A800E320202983
:10021000AB010130AC0065200230A7003E20202950
:100220000130A7000230A800E3202029AB011030E4
:10023000AC00652020290130AB002608AC00652009
:1002400008000B08A2008B13831603178C170C14DD
:100250000000000083120313A21B8B1703170C0866
:100260007F39031975290313A20003170D0803131F
:10027000A30003170F080313A4002208A600F5200B
:10028000230803178D000313240803178F0003139B
:100290000B08A5008B13831603178C170C14000092
:1002A000000083120313A51B8B1703170C0D0E0DF3
:1002B0007F39031975290313A20003170D080313CF
:1002C000A30003170F080313A4002208A600F520BB
:1002D000230803178D000313240803178F008D0ACA
:1002E00003198F0A03132129031703138A110A1212
:1002F0004B2A0B08A3008B13831603178C170C14BF
:100300000000000083120313A31B8B170318B029EE
:1003100003170C087F390313A30003170D080313F9
:10032000A40003170F080313A5002308A600F52057
:10033000240803178D000313250803178F000313E8
:100340000B08A6008B13831603178C170C140000E0
:10035000000083120313A61B8B17A20BB029CF2911
:1003600003170C0D0E0D7F390313A30003170D089F
:100370000313A40003170F080313A5002308A60006
:10038000F520240803178D000313250803178F0099
:100390008D0A03198F0A03100313A20B7929080091
:1003A0002508F80124020318D8292408F700E429B5
:1003B000F7010830A600A40DF70D250877020318F1
:1003C000F700F80DA60BDB29080078082208A40026
:1003D0006430A500D0217708A20078083030031DD2
:1003E000F829A31CFF29A319FF29231A2030FB2970
:1003F000A31123122314F8077808A600F520220879
:10040000A4000A30A500D0217708A2007808303077
:10041000031D102AA319142A231C142A231A20307E
:10042000F8077808A600F5203030A2072208A600B9
:10043000F520080003081F3983000130A00083164F
:100440001F149F141F159F1183130912831290010B
:10045000F0309D050030F8009200003083169200C5
:100460001F149F141F159F1183121F10F030970542
:1004700003308316850000308600880083128601D1
:10048000A5280A30A7003E20043003178D00003055
:100490008F00031321290430A200FA30A7003E2068
:1004A000A20B4D2A01302002F83E0318702A083EA4
:1004B000182B01308800702A03308800702A02301F
:1004C0008800702A06308800702A04308800702A5C
:1004D0000C308800702A08308800702A09308800A3
:1004E0000A30A7003E2001302102FC3E0318E12A19
:1004F000043E242B0D3003178D0000308F000310B5
:1005000008300313A20079212008A2001B30A300A9
:10051000E521123003178D0000308F0003100D30DD
:100520000313A2007921E12A193003178D0000304E
:100530008F00031008300313A20079212008A200C5
:100540001B30A300E5211E3003178D0000308F0003
:1005500003100D300313A2007921E12A253003177F
:100560008D0000308F00031008300313A2007921A2
:100570002008A2001B30A300E5212A3003178D00BC
:1005800000308F0003100C300313A2007921E12A00
:10059000313003178D0000308F0003100830031333
:1005A000A20079212008A2001B30A300E5213630EB
:1005B00003178D0000308F0003100E300313A200CC
:1005C00079210A30A7003E20051CF72A0230A2003C
:1005D000FA30A7003E20A20BE82AA00A0130A100B1
:1005E0002008093C031DF72AA0010130A100851C49
:1005F0000A2B0230A200FA30A7003E20A20BFB2AF1
:10060000A0030230A100A008031D0A2B0830A0009F
:100610000230A1000518102B8518102B0330A10003
:10062000051C162B851C162B0430A100522A6300D2
:100630000A148A140A118207592A5C2A5F2A622A3C
:10064000652A682A6B2A6E2A0A148A140A118207FC
:080650007A2A942AAE2AC82A76
:02400E003A3F37
:00000001FF
;PIC16F877
;CRC=4E83  CREATED="05-Kas-21 22:34"
