:1000000000308A0019280000213084008313000882
:10001000031918280130F800F701F70B0D28F80B29
:100020000C284A30F700F70B13281628800B0A28F3
:10003000080003081F3983000530A00083161F1431
:100040009F141F159F1183130912831290018316A9
:100050001F149F141F159F1183121F100330831646
:100060008500003087008312870107110C3097004C
:1000700087109D000030F80006389200AA308316E1
:1000800092000C150D14C03083128B0420089500CB
:1000900020089B00051C59281430A10004200518D5
:1000A0004F280330A0072008A93C03185928AA307C
:1000B000A000851C68281430A100042085185E2843
:1000C0000330A0022008043C031C68280530A0006F
:0C00D0002008950020089B004A286300CF
:02400E003A3F37
:00000001FF
;PIC16F877
;CRC=2D74  CREATED="05-Kas-21 14:36"
