:1000000000308A003C2800000A108A100A1182077A
:100010003F3406345B344F3466346D347C340734FB
:100020007F346F342508F801240203181A282408A5
:10003000F7002628F7010830A600A40DF70D2508C3
:1000400077020318F700F80DA60B1D2808002430CE
:1000500084008313000803193B280130F800F701DE
:10006000F70B3028F80B2F284A30F700F70B36280B
:100070003928800B2D28080003081F3983008316B8
:100080001F149F141F159F118313091283129001CF
:100090000030F80092000030831692001F149F1465
:1000A0001F159F1183121F10F03097059D05033017
:1000B0008316850000308600870083128601870141
:1000C000A101051C88282108633C03198828A10A7E
:1000D0002108A4000A30A50012207708A3002108F7
:1000E000A4000A30A50012207808A20007142308F3
:1000F0000420A40086003230A400272007108714B3
:1001000022080420A40086003230A4002720871093
:10011000851CAE28A1080319AE28A1032108A4005C
:100120000A30A50012207708A3002108A4000A3095
:10013000A50012207808A200071423080420A400B8
:1001400086003230A40027200710871422080420DC
:10015000A40086003230A40027208710071423084B
:100160000420A40086003230A40027200710871442
:1001700022080420A40086003230A4002720871023
:04018000612863008F
:02400E003A3F37
:00000001FF
;PIC16F877
;CRC=BDBC  CREATED="04-Kas-21 15:42"
