:1000000005308A00192D0000D334E3306B36E93512
:10001000A01E2000393084008313000803191E2815
:100020000130F800F701F70B1328F80B12284A30BB
:10003000F700F70B19281C28800B10280800400E29
:10004000F039F7000F30060577048600000006142B
:100050002928061008000608F700060E0F39F800D8
:1000600008008316061086100611831286100F30C2
:1000700083160605F0388600831206150000061464
:1000800000002B207808C0000610000006140000B5
:100090002B207808BF0006100F3083160605860057
:1000A0008312400EF700F030F70577083F04F800A0
:1000B0007808BF00BF1B37283D1C86103D188614EA
:1000C00000000611000006103E0EBF000F30BF05F5
:1000D0003F08C0001F203E080F39BF00C0001F208E
:1000E00008002830AC000C30AD000130AE00063006
:1000F000AF000610861006110F3083160605860025
:100100000610861006110F308312B9000A20013044
:10011000AB002B08033C031C95280330C0001F20B4
:100120000530B9000A20AB0A89280230C0001F2020
:100130000530B9000A20AB012B08033C031CAC2896
:100140002C302B07840083130008B000BD01300859
:10015000BE003120AB0A9C288A110A12422D8E3033
:10016000F7002C08F8002B08F900FA01F808031D25
:10017000C3287908F800F9010830F702F808031DD0
:10018000C328F701CB280310F81BCA28F90DF80D76
:10019000F703C328F8138A110A125A2D38080319D5
:1001A0003E29C0003C0803193E29C0070318DF2878
:1001B0007F30C002031C3E2903193E29E328813009
:1001C000C00703183E294008F700F801F901FA01B9
:1001D0003908C400C4173A08C3003B08C2001830ED
:1001E000C000C101421C0C293F08FA07031CFE286D
:1001F000F90A031DFE28F80A0319C1173E08F9077A
:10020000031C0529F80A0319C1173D08BA00BA17DB
:100210003A08F8070318C117C10DF80CF90CFA0CCD
:10022000C40CC30CC20C0310C00BF1280130F7073B
:1002300003183E29F81B2329C40DFA0DF90DF80DFA
:10024000F70303193E29C41F3429FA0A031D342970
:10025000F90A031D3429F80A031D3429F80CF90C96
:10026000FA0CF70A03193E293908C1003D08C106F6
:10027000C11F3C29F8174229F8134229F701F80158
:10028000F901FA0108002B080319082AB7002F0802
:100290000319082AB702031C52297F30B707031835
:1002A000082A58298130B702031C082A0319082A92
:1002B0003708F700F801F901FA01B6012C08B5007A
:1002C000B5172D08B4002E08B3001930B700320856
:1002D000B30203187B290130B40203187B29B5024D
:1002E00003187B29B60203187B29B60AB50AB40A9B
:1002F0003208B307AD293108B4020318962901303A
:10030000B50203189629B60203189629B60AB50A4B
:100310003108B4073208B307031CAD29B40A031D22
:10032000AD29B50A031DAD29B60AAD2930088038BC
:10033000B5020318AC290130B6020318AC29B60A7D
:1003400030088038B5073108B407031C8A29B50A7C
:10035000031D8A29B60A8A297A14B70BB029BB294A
:100360000310B30DB40DB50DB60D0310FA0DF90D54
:10037000F80DB80D6729381CC3290310F80CF90CC7
:10038000FA0CB80CC629F7030319082AB81BEF2981
:100390000310B30DB40DB50DB60D3208B30203183A
:1003A000DB290130B4020318DB29B5020318DB296D
:1003B000B602031CFE293108B4020318E6290130F5
:1003C000B5020318E629B602031CFE29300880385E
:1003D000B5020318EF290130B602031CFE29FA0A00
:1003E000031DFE29F90A031DFE29F80A031DFE2933
:1003F000F70A0319082AF80CF90CFA0C2C08B700B4
:100400003008B706B71F062AF8170C2AF8130C2A6B
:10041000F701F801F901FA018A110A12972D8030CB
:100420008318B406B901BA013008B8003408B80618
:100430002F080319FF2AB700F70033080319082B08
:10044000B7020319A42A031C622A3408BD00BD1791
:100450003508BC003608BB00BA010310BD0CBC0C4B
:10046000BB0CBA0CB70B2C2AB81F392A39141C2B19
:10047000391037103916323084008313312B39127A
:10048000B81B4C2A371C572ABD0CBC0CBB0CBA0C31
:10049000F70A0319172B572ABD1B5A2A0310BA0D46
:1004A000BB0DBC0DBD0DF7030319172B4C2A3917D3
:1004B000C42A39133008B800B81F602ABD17102BA2
:1004C000BD13102B3308B700F7002F08B702300810
:1004D000BD00BD173108BC003208BB00BA010310D3
:1004E000BD0CBC0CBB0CBA0CB70B6E2AB81F7B2A18
:1004F000B9141C2BB9103710B91636308400831389
:10050000312BB912B81B8E2A371C992ABD0CBC0C92
:10051000BB0CBA0CF70A0319172B992ABD1B9C2A8E
:100520000310BA0DBB0DBC0DBD0DF7030319172B3E
:100530008E2AB917C42AB9133408B800B81FA22AE2
:10054000BD17102BBD13102B3408BD00BD17350887
:10055000BC003608BB00B81FB12ABD1339151C2BCF
:100560003911BA013710323084008313312BB81B94
:10057000DA2A3008B800371CC42ABD0CBC0CBB0CEE
:10058000BA0CF70A0319172BBA1FD52ABB0A031D89
:10059000D52ABC0A031DD52ABD0A031DD52ABD0CC8
:1005A000BC0CBB0CF70A0319172B391B592AB91BB2
:1005B0009B2AF92A8030BD06BD1FE22A1C2B340875
:1005C000B800EF2A3008B800BD08031DEF2ABC08A8
:1005D000031DEF2ABB08031DEF2AF701102BBD1BDB
:1005E000F92A0310BA0DBB0DBC0DBD0DF70BEF2A98
:1005F000172BB81FFD2ABD17102BBD13102B330866
:10060000F7003408BD003508BC003608BB00102BCD
:100610002F08F7003008BD003108BC003208BB00CD
:100620003D08F8003C08F9003B08FA004F2BF701A1
:10063000F801F901FA014F2BBA01BB09BC09BD0948
:10064000BA09BA0A031D2A2BBB0A031D2A2BBC0AAE
:100650000319BD0A3918382AB9187A2A3919B02A63
:10066000DF2A0008BB07031C3B2BBC0A031D3B2BE6
:10067000BD0A0319371484030008BC07031C432B6D
:10068000BD0A0319371484030008801F803ABD0790
:1006900003183714391A3F2AB91A812AB72A8A113E
:1006A0000A12AE2D3A0B552B582B4030BB00592B5C
:1006B000BB0101303902BB073B088038BC00BD01DB
:1006C0003C08BE00312008003808073A0319722B95
:1006D0000B3A0319772B063A03197F2B023A0319B9
:1006E000852B8A2B0130B900BA0052238F2BBD0114
:1006F0000130BE0031200230B9000A208F2B0130BA
:10070000B9000230BA0052238F2BBD011030BE0059
:1007100031208F2B0130BD003808BE003120080089
:100720000B08AB008B13831603178C170C140000F7
:10073000000083120313AB1B8B1703170C087F39C0
:100740000319E42B0313AB0003170D080313AC00CC
:1007500003170F080313AD002B08B80064232C08FF
:1007600003178D0003132D0803178F0003130B08C5
:10077000AE008B13831603178C170C1400000000B7
:1007800083120313AE1B8B1703170C0D0E0D7F394D
:100790000319E42B0313AB0003170D080313AC007C
:1007A00003170F080313AD002B08B80064232C08AF
:1007B00003178D0003132D0803178F008D0A0319EB
:1007C0008F0A0313902B031703138A110A12BD2DEE
:1007D0008318ED2B403084008313F701F801F901F1
:1007E000FA01C001C101C201C3013F083E043D043A
:1007F0003C0403192B2C2030C4000310B80DB90D94
:10080000BA0DBB0DC00DC10DC20DC30D3F08430293
:10081000031D142C3E084202031D142C3D08410206
:10082000031D142C3C084002031C252C3C08C0026C
:100830003D08031C3D0FC1023E08031C3E0FC202CF
:100840003F08031C3F0FC3020314F70DF80DF90D09
:10085000FA0DC40BFD2B40088000840A410880007B
:10086000840A42088000840A4308800008000408C3
:10087000B0002F08B2000319562C2E08BB002D081B
:10088000BA002C08B9002B08B800BF01BE01203007
:10089000BD008230BC00CE207A08AE007908AD00E1
:1008A0007808AC007708AB00B20B3D2C2E08BB00DB
:1008B0002D08BA002C08B9002B08B8003808B63C3F
:1008C000B800FA013908BC00B9170310B90CBA0C0A
:1008D000BB0CFA0CF90CF80CF70CB80B652CBC1F10
:1008E0007C2CF709F809F909FA09F70A0319F80A3B
:1008F0000319F90A0319FA0A7A08AE007908AD005B
:100900007808AC007708AB00AE1F932CB003B0168C
:10091000AB09AC09AD09AE09AB0A0319AC0A03195E
:10092000AD0A0319AE0A3B30B7009A30B600CA30A0
:10093000B500B4010A30B2002F080319B00A8314BD
:100940002B30840083132E08BB002D08BA002C081E
:10095000B9002B08B8003708BF003608BE003508BC
:10096000BD003408BC00E8237808F708031DCB2C31
:100970002F0A32020319CB2C30080319CD2C0F3962
:1009800032020319C52C0318FD2CB01BFD2C301BA3
:10099000CD2C2030F92C2030B005B01EDB2CB0124D
:1009A0002F08031DB0037708B0002D30B800642372
:1009B0003008F700B0012F083202031DE92C770838
:1009C000B0002E30B80064233008F7002030B005A6
:1009D00000303030B01EF92CB0122F08031DB003C8
:1009E0007708B0002D30B80064233008F700B0015C
:1009F0003030F7077708B800642383103708BB004E
:100A00003608BA003508B9003408B800BF01BE0185
:100A1000BD010A30BC00E8237A08B7007908B600A7
:100A20007808B5007708B400B20B9F2C8A110A121F
:100A3000CF2D03081F39830083161F149F141F1521
:100A40009F1183130912831290010030F800920065
:100A5000003083169200F030831297059D05013017
:100A6000831685000030860083121F139F1783169C
:100A70009F1783121F1483161F109F141F159F1595
:100A8000831271280030F8001F08C73978049F00CE
:100A90000A30B9000A201F151F194C2D1E08FA0034
:100AA00083161E088312A1001E08A200AC002108B4
:100AB000AB00AF28BB01BA012030B9007730B800D5
:100AC0007A08BF007908BE007808BD007708BC002E
:100AD000CE207A08AE007908AD007808AC0077081F
:100AE000AB007A08BB007908BA007808B90077082B
:100AF000B800BF01BE017A30BD008830BC00CE20F6
:100B00007A08A6007908A5007808A4007708A30051
:100B10002608AE002508AD002408AC002308AB0071
:100B2000B201B1012030B0008230AF0043297A0811
:100B3000AE007908AD007808AC007708AB008310F0
:100B40007A08B2007908B1007808B0007708AF00E1
:100B5000B601B501B4018030B3000F2A7A08AA00AB
:100B60007908A9007808A8007708A70004300317BF
:100B70008D0000308F000313902B0B30B900013033
:100B8000BA005223043084002A08AE002908AD00C0
:100B90002808AC002708AB000130AF00372C273005
:0E0BA000B80064234330B8006423422D630084
:02400E003A3F37
:00000001FF
;PIC16F877
;CRC=7E36  CREATED="10-Ara-21 15:30"
