:1000000005308A00B42D00008C29701D251731336E
:1000100000000A2B4C1D251731336D2B0001CC221B
:10002000441D3100CC22441D30003E308400831337
:100030000008031929280130F800F701F70B1E28E2
:10004000F80B1D284A30F700F70B24282728800BCF
:100050001B280800450EF039F7000F30060577041D
:100060008600000006143428061008000608F70071
:10007000060E0F39F80008008316061086100611C8
:10008000831286100F3083160605F038860083121F
:10009000061500000614000036207808C50006107A
:1000A00000000614000036207808C40006100F3047
:1000B0008316060586008312450EF700F030F7051B
:1000C00077084404F8007808C400C41B4228421C86
:1000D0008610421886140000061100000610430E18
:1000E000C4000F30C4054408C5002A2043080F3956
:1000F000C400C5002A2008002830B1000C30B2002E
:100100000130B3000630B4000610861006110F301F
:100110008316060586000610861006110F3083121E
:10012000BE0015200130B0003008033C031CA0289D
:100130000330C5002A200530BE001520B00A9428DF
:100140000230C5002A200530BE001520B00130085D
:10015000033C031CB72831303007840083130008A8
:10016000B500C2013508C3003C20B00AA7288A1197
:100170000A12DC2D8E30F7003108F8003008F90043
:10018000FA01F808031DCE287908F800F9010830B3
:10019000F702F808031DCE28F701D6280310F81B34
:1001A000D528F90DF80DF703CE28F813080030080C
:1001B00003199C29BC00340803199C29BC02031CA8
:1001C000E6287F30BC0703189C29EC288130BC024C
:1001D000031C9C2903199C293C08F700F801F9012C
:1001E000FA01BB013108BA00BA173208B900330866
:1001F000B8001930BC003708B80203180F290130C5
:10020000B90203180F29BA0203180F29BB020318F9
:100210000F29BB0ABA0AB90A3708B80741293608B4
:10022000B90203182A290130BA0203182A29BB028D
:1002300003182A29BB0ABA0A3608B9073708B807CB
:10024000031C4129B90A031D4129BA0A031D41298A
:10025000BB0A412935088038BA0203184029013009
:10026000BB0203184029BB0A35088038BA07360894
:10027000B907031C1E29BA0A031D1E29BB0A1E2921
:100280007A14BC0B44294F290310B80DB90DBA0DCF
:10029000BB0D0310FA0DF90DF80DBD0DFB283D1C2B
:1002A00057290310F80CF90CFA0CBD0C5A29F70366
:1002B00003199C29BD1B83290310B80DB90DBA0D74
:1002C000BB0D3708B80203186F290130B9020318B3
:1002D0006F29BA0203186F29BB02031C9229360842
:1002E000B90203187A290130BA0203187A29BB022D
:1002F000031C922935088038BA020318832901307B
:10030000BB02031C9229FA0A031D9229F90A031D54
:100310009229F80A031D9229F70A03199C29F80C5F
:10032000F90CFA0C3108BC003508BC06BC1F9A2930
:10033000F817A029F813A029F701F801F901FA012B
:10034000080080308318B906BE01BF013508BD0022
:100350003908BD0634080319912ABC00F700380893
:1003600003199A2ABC020319362A031CF4293908F6
:10037000C200C2173A08C1003B08C000BF01031009
:10038000C20CC10CC00CBF0CBC0BBE29BD1FCB29BD
:100390003E14AE2A3E103C103E16373084008313C4
:1003A000C32A3E12BD1BDE293C1CE929C20CC10C2C
:1003B000C00CBF0CF70A0319A92AE929C21BEC29B2
:1003C0000310BF0DC00DC10DC20DF7030319A92AFB
:1003D000DE293E17562A3E133508BD00BD1FF229FF
:1003E000C217A22AC213A22A3808BC00F700340898
:1003F000BC023508C200C2173608C1003708C00069
:10040000BF010310C20CC10CC00CBF0CBC0B002AF6
:10041000BD1F0D2ABE14AE2ABE103C10BE163B30C6
:1004200084008313C32ABE12BD1B202A3C1C2B2A26
:10043000C20CC10CC00CBF0CF70A0319A92A2B2A45
:10044000C21B2E2A0310BF0DC00DC10DC20DF70334
:100450000319A92A202ABE17562ABE133908BD003F
:10046000BD1F342AC217A22AC213A22A3908C20009
:10047000C2173A08C1003B08C000BD1F432AC2137F
:100480003E15AE2A3E11BF013C1037308400831365
:10049000C32ABD1B6C2A3508BD003C1C562AC20C61
:1004A000C10CC00CBF0CF70A0319A92ABF1F672A89
:1004B000C00A031D672AC10A031D672AC20A031D59
:1004C000672AC20CC10CC00CF70A0319A92A3E1BEB
:1004D000EB29BE1B2D2A8B2A8030C206C21F742A2C
:1004E000AE2A3908BD00812A3508BD00C208031DA7
:1004F000812AC108031D812AC008031D812AF70132
:10050000A22AC21B8B2A0310BF0DC00DC10DC20D44
:10051000F70B812AA92ABD1F8F2AC217A22AC2134C
:10052000A22A3808F7003908C2003A08C1003B087F
:10053000C000A22A3408F7003508C2003608C100FE
:100540003708C0004208F8004108F9004008FA00E6
:10055000E12AF701F801F901FA01E12ABF01C00916
:10056000C109C209BF09BF0A031DBC2AC00A031D75
:10057000BC2AC10A0319C20A3E18CA29BE180C2A8D
:100580003E19422A712A0008C007031CCD2AC10A5D
:10059000031DCD2AC20A03193C1484030008C107B5
:1005A000031CD52AC20A03193C1484030008801FC7
:1005B000803AC20703183C143E1AD129BE1A132AE6
:1005C000492A8A110A121C2E3F0BE72AEA2A4030D8
:1005D000C000EB2AC00101303E02C007400880384D
:1005E000C100C2014108C3003C2008003D08073A91
:1005F0000319042B0B3A0319092B063A0319112B83
:10060000023A0319172B1C2B0130BE00BF00E42255
:10061000212BC2010130C3003C200230BE00152056
:10062000212B0130BE000230BF00E422212BC20189
:100630001030C3003C20212B0130C2003D08C30014
:100640003C2008000B08B1008B13831603178C178E
:100650000C140000000083120313B11B8B17031846
:10066000592B03170C087F390313B10003170D082A
:100670000313B20003170F080313B3003108BD00C2
:10068000F622320803178D000313330803178F0077
:1006900003130B08B4008B13831603178C170C1469
:1006A0000000000083120313B41B8B17B00B592BEF
:1006B000782B03170C0D0E0D7F390313B1000317B0
:1006C0000D080313B20003170F080313B30031081A
:1006D000BD00F622320803178D00031333080317F9
:1006E0008F008D0A03198F0A03100313B00B222BFE
:1006F00008003D080319E92BC50041080319E92B3F
:10070000C50703188A2B7F30C502031CE92B031988
:10071000E92B8E2B8130C5070318E92B4508F7001C
:10072000F801F901FA013E08C900C9173F08C800DD
:100730004008C7001830C500C601471CB72B440845
:10074000FA07031CA92BF90A031DA92BF80A0319A0
:10075000C6174308F907031CB02BF80A0319C6177C
:100760004208BF00BF173F08F8070318C617C60D99
:10077000F80CF90CFA0CC90CC80CC70C0310C50B0B
:100780009C2B0130F7070318E92BF81BCE2BC90D62
:10079000FA0DF90DF80DF7030319E92BC91FDF2B2B
:1007A000FA0A031DDF2BF90A031DDF2BF80A031DCC
:1007B000DF2BF80CF90CFA0CF70A0319E92B3E08A9
:1007C000C6004208C606C61FE72BF817ED2BF81324
:1007D000ED2BF701F801F901FA0108008318F32B5A
:1007E000453084008313F701F801F901FA01C501CE
:1007F000C601C701C8014408430442044104031967
:10080000312C2030C9000310BD0DBE0DBF0DC00D31
:10081000C50DC60DC70DC80D44084802031D1A2C8E
:1008200043084702031D1A2C42084602031D1A2CD6
:1008300041084502031C2B2C4108C5024208031C39
:10084000420FC6024308031C430FC7024408031C9F
:10085000440FC8020314F70DF80DF90DFA0DC90B7A
:10086000032C45088000840A46088000840A470853
:100870008000840A4808800008000408B500340895
:10088000B70003195C2C3308C0003208BF003108E0
:10089000BE003008BD00C401C3012030C200823058
:1008A000C10079237A08B3007908B2007808B10052
:1008B0007708B000B70B432C3308C0003208BF00E4
:1008C0003108BE003008BD003D08B63CBD00FA014D
:1008D0003E08C100BE170310BE0CBF0CC00CFA0CC2
:1008E000F90CF80CF70CBD0B6B2CC11F822CF7090F
:1008F000F809F909FA09F70A0319F80A0319F90AB4
:100900000319FA0A7A08B3007908B2007808B1002E
:100910007708B000B31F992CB503B516B009B1091B
:10092000B209B309B00A0319B10A0319B20A0319CB
:10093000B30A3B30BC009A30BB00CA30BA00B901E0
:100940000A30B70034080319B50A83143030840024
:1009500083133308C0003208BF003108BE003008DE
:10096000BD003C08C4003B08C3003A08C200390877
:10097000C100EE237808F708031DD12C340A370292
:100980000319D12C35080319D32C0F393702031959
:10099000CB2C0318032DB51B032D351BD32C203076
:1009A000FF2C2030B505B51EE12CB5123408031D0F
:1009B000B5037708B5002D30BD00F6223508F700E5
:1009C000B50134083702031DEF2C7708B5002E302F
:1009D000BD00F6223508F7002030B5050030303074
:1009E000B51EFF2CB5123408031DB5037708B500FA
:1009F0002D30BD00F6223508F700B5013030F7077D
:100A00007708BD00F62283103C08C0003B08BF00F9
:100A10003A08BE003908BD00C401C301C2010A3052
:100A2000C100EE237A08BC007908BB007808BA0040
:100A30007708B900B70BA52C08003108B8003508B5
:100A4000B806B81F282D03110310B11B03145B2D2A
:100A50003108B8003408B9003008B9020319362D3E
:100A6000B81F5B2D0308013A83005B2D3508B900E0
:100A70003108B9020319422DB81F5B2D0308013A52
:100A800083005B2D3608B9003208B90203194E2DD8
:100A9000B81F5B2D0308013A83005B2D3708B900AE
:100AA0003308B90203195A2DB81F5B2D0308013A08
:100AB00083005B2D03108A110A12E02E0B08B00090
:100AC0008B13831603178C170C140000000083127D
:100AD0000313B01B8B1703170C087F390319B22DB2
:100AE0000313B00003170D080313B10003170F0819
:100AF0000313B2003008BD00F622310803178D0041
:100B00000313320803178F0003130B08B3008B1372
:100B1000831603178C170C140000000083120313B4
:100B2000B31B8B1703170C0D0E0D7F390319B22D54
:100B30000313B00003170D080313B10003170F08C8
:100B40000313B2003008BD00F622310803178D00F0
:100B50000313320803178F008D0A03198F0A03133A
:100B60005E2D03170313080003081F398300831643
:100B70001F149F141F159F118313091283129001D4
:100B80000030F8009200003083169200F03083129B
:100B900097059D051F139F1783169F1783121F1418
:100BA00083161F109F101F159F1103308500003002
:100BB0008700831287017C280030F8001F08C7399E
:100BC00078049F000A30BE0015201F151F19E62D5E
:100BD00083161E088312A0001E08A1002108B10080
:100BE0002008B000BA207A08B3007908B20078086B
:100BF000B1007708B0009A30B7009930B6004C3099
:100C0000B5008330B400D7207A08B3007908B20069
:100C10007808B1007708B00083107A08B700790827
:100C2000B6007808B5007708B400BB01BA0170308F
:100C3000B9008330B800A1297A08AF007908AE0066
:100C40007808AD007708AC00043003178D00003041
:100C50008F00031004300313B00022238930840076
:100C60002F08B3002E08B2002D08B1002C08B000E8
:100C70000130B4003D240830F8001F08C73978045B
:100C80009F000A30BE0015201F151F19452E831620
:100C90001E088312A2001E08A3002308B100220828
:100CA000B000BA207A08C0007908BF007808BE00FA
:100CB0007708BD00C401C3012030C2007730C100F5
:100CC00079237A08B3007908B2007808B100770870
:100CD000B0007A08C0007908BF007808BE00770825
:100CE000BD00C401C3017A30C2008830C10079233D
:100CF0007A08AB007908AA007808A9007708A8004C
:100D0000093003178D0000308F00031004300313E7
:100D1000B0002223893084002B08B3002A08B200D7
:100D20002908B1002808B0000130B4003D246D301E
:100D3000BD00F6225630BD00F6220930BE0001305B
:100D4000BF00E4222B08B3002A08B2002908B10032
:100D50002808B000B701B6012030B5008230B400D9
:100D6000D7207A08A7007908A6007808A500770898
:100D7000A4005330BD00F6224C30BD00F6223A30BC
:100D8000BD00F622893084002708B3002608B2008F
:100D90002508B1002408B0000130B4003D242F081C
:100DA000B3002E08B2002D08B1002C08B0002708AF
:100DB000B7002608B6002508B5002408B4001D2D8C
:100DC000031CF32E07140B30BE000230BF00E422D8
:100DD0000F3003178D0000308F0003135E250A309B
:100DE000BE001520032F07100B30BE000230BF00DD
:100DF000E422123003178D0000308F0003135E25AC
:0A0E00000A30BE001520DC2D63004F
:02400E003A3F37
:00000001FF
;PIC16F877
;CRC=9B71  CREATED="10-Ara-21 16:07"
