:1000000000308A00192800002E3084008313000875
:10001000031918280130F800F701F70B0D28F80B29
:100020000C284A30F700F70B13281628800B0A28F3
:10003000080003081F39830083161F149F141F151F
:100040009F1183130912831290010030F80092006F
:100050000030831692001F149F141F159F118312E6
:100060001F10F03097059D0500308316860087002D
:100070003F308312A1000630A2005B30A3004F3056
:10008000A4006630A5006D30A6007C30A7000730C4
:10009000A8007F30A9006F30AA00860187012B14C9
:1000A000AC012C08093C031C7628AD012D08093C45
:1000B000031C742821302C07840083130008AE0031
:1000C000870021302D07840083130008AE008600CE
:1000D0003230AE000420831605148312051C7228EA
:1000E0002B107428AD0A5628AC0A51282B1C7928ED
:1000F00050282108870021088600FA30AE0004202D
:040100008601630011
:02400E003A3F37
:00000001FF
;PIC16F877
;CRC=6DCC  CREATED="04-Kas-21 15:26"
