:1000000000308A000428000003081F39830083168B
:100010001F149F141F159F1183130912831290013F
:100020000030F80092000030831692001F149F14D5
:100030001F159F1183121F10F03097059D05013089
:100040008316850000308600831286010F30F7008A
:1000500081018130840083130008F0390738800063
:1000600064000008F739F719F0397704800001308F
:100070008606051C3D286400392863003728630084
:02400E003E3F33
:00000001FF
;PIC16F877
;CRC=654F  CREATED="04-Kas-21 22:26"
