:1000000000308A00DD2800002230840083130008BD
:10001000031918280130F800F701F70B0D28F80B29
:100020000C284A30F700F70B13281628800B0A28F3
:100030000800831608128312081683160814831208
:10004000081C26281430A2000420A001831688145E
:100050008312881C30281430A20004200130A00034
:10006000831608158312081D3A281430A2000420B4
:100070000230A000831688158312881D442814308E
:10008000A20004200330A000831608128312081275
:100090008316881283128816831608148312081C8C
:1000A00056281430A20004200430A00083168814BF
:1000B0008312881C60281430A20004200530A000A0
:1000C000831608158312081D6A281430A200042024
:1000D0000630A000831688158312881D74281430FA
:1000E000A20004200730A000831688128312881211
:1000F0008316081383120817831608148312081C2A
:1001000086281430A20004200830A000831688142A
:100110008312881C90281430A20004200930A0000B
:10012000831608158312081D9A281430A200042093
:100130000A30A000831688158312881DA428143065
:10014000A20004200B30A0008316081383120813AA
:100150008316881383128817831608148312081CC9
:10016000B6281430A20004200C30A0008316881496
:100170008312881CC0281430A20004200D30A00077
:10018000831608158312081DCA281430A200042003
:100190000E30A000831688158312881DD4281430D1
:1001A000A20004200F30A000831688138312881346
:1001B0002008F8008A110A12012903081F39830058
:1001C000A001A10183161F149F141F159F118313F3
:1001D0000912831290010030F8009200003083165B
:1001E00092001F149F141F159F1183121F10F030CF
:1001F00097059D050030831686000F308800831216
:1002000019287808A1008316860183122108860028
:0A0210001430A2000420002963004E
:02400E003A3F37
:00000001FF
;PIC16F877
;CRC=687A  CREATED="04-Kas-21 16:38"
