:1000000000308A00CD280000FF00030E8301A1000C
:100010000A08A0008A010408A2007708A300780853
:10002000A4007908A5007A08A600831383128B1E0A
:100030001B280B192C28220884002308F700240809
:10004000F8002508F9002608FA0020088A00210E89
:100050008300FF0E7F0E09008A110A123F280A1042
:100060008A100A11820705340A340B340C340D341B
:100070000E340F3410341134123413341434E73086
:100080008100A708031D5128A808031D5128A908AD
:10009000031D5128AA08031D5128061486140615AD
:1000A00086152B08270203180610A70A2708C83C44
:1000B0000319A701B30A0319B40A3408263C03182C
:1000C0006F28FF3A031D68283308103C03186F2877
:1000D000B401B301AF0A2F080C3C0319AF012C087F
:1000E000280203188610A80A2808C83C0319A8018A
:1000F000B50A0319B60A3608263C03188D28FF3ABC
:10010000031D86283508103C03188D28B601B5015B
:10011000B00A30080C3C0319B0012D08290203185D
:100120000611A90A2908C83C0319A901B70A03192D
:10013000B80A3808263C0318AB28FF3A031DA42848
:100140003708103C0318AB28B801B701B10A3108D1
:100150000C3C0319B1012E082A0203188611AA0AC1
:100160002A08C83C0319AA01B90A0319BA0A3A08AD
:10017000263C0318C928FF3A031DC2283908103C41
:100180000318C928BA01B901B20A32080C3C031994
:10019000B2010B118A110A121B2803081F398300B0
:1001A000A701A801A901AA01AB01AC01AD01AE01F3
:1001B000AF01B001B101B201B401B301B601B501A3
:1001C000B801B701BA01B90183161F149F141F1596
:1001D0009F118313091283129001F0309D050030A6
:1001E000F80092000030831692001F149F141F1510
:1001F0009F1183121F10F030970500308316860080
:100200000108C03901388100E730831281008B1664
:10021000C0308B042F082F20F800AB0030082F20AF
:10022000F800AC0031082F20F800AD0032082F2074
:08023000F800AE000A2963008A
:02400E003A3F37
:00000001FF
;PIC16F877
;CRC=969F  CREATED="06-Kas-21 13:10"
