:1000000000308A003A280000FF00030E8301A1009F
:100010000A08A0008A010408A2007708A300780853
:10002000A4007908A5007A08A600831383128D30F6
:100030008400001C1D280D182E2822088400230887
:10004000F7002408F8002508F9002608FA0020081F
:100050008A00210E8300FF0E7F0E09008A110A120A
:1000600031288E018F018E01013086060D108A1114
:100070000A121D2803081F39830083161F149F14BA
:100080001F159F11831309120030F800831292008C
:100090000030831692001F149F141F159F118312A6
:1000A0001F10F0309705003083168600013087005E
:1000B0008312860183160D14C03083128B040A301C
:1000C0009D00833090009C0105309B008E018F01C4
:0600D0008E0169286300A7
:02400E00393F38
:00000001FF
;PIC16F877
;CRC=1E1A  CREATED="13-Ara-21 14:29"
