:1000000000308A00192800002D3084008313000876
:10001000031918280130F800F701F70B0D28F80B29
:100020000C284A30F700F70B13281628800B0A28F3
:10003000080003081F39830083161F149F141F151F
:100040009F1183130912831290010030F80092006F
:100050000030831692001F149F141F159F118312E6
:100060001F10F03097059D0507308316850000307E
:10007000860083128601051C602886010130A100DC
:100080004030A200A3012308073C031C502821088C
:100090008600FA30AD0004200310A10DA30A432806
:1000A000A4012408063C031C5E2822088600FA30BE
:1000B000AD0004200310A20CA40A51288601AB282D
:1000C000851C852886010330A5006030A600A701A5
:1000D0002708063C031C752825088600FA30AD0069
:1000E00004200310A50DA70A6828A8012808053CCC
:1000F000031C832826088600FA30AD000420031074
:10010000A60CA80A76288601AB28051DAB28860117
:100110000130A9007F30AA00AB012B08073C031C6B
:100120009C2829088600FA30AD0004200310290D10
:10013000013EA900AB0A8D28AC012C08063C031C2B
:10014000AA282A088600FA30AD0004200310AA0C61
:0A015000AC0A9D2886013B286300DD
:02400E003A3F37
:00000001FF
;PIC16F877
;CRC=5604  CREATED="04-Kas-21 14:40"
