:1000000000308A0045280000FF00030E8301A10094
:100010000A08A0008A010408A2007708A300780853
:10002000A4007908A5007A08A600831383128C30F7
:100030008400001C1D280C182E2822088400230888
:10004000F7002408F8002508F9002608FA0020081F
:100050008A00210E8300FF0E7F0E09008A110A120A
:1000600031288E01EC308F0078308E00A70A2708E7
:10007000643C031906142708C83C031D41280610D8
:10008000A7010C108A110A121D2803081F398300CA
:10009000A70183161F149F141F159F1183130912A4
:1000A0000030F800831292000030831692001F1473
:1000B0009F141F159F1183121F10F03097059D0587
:1000C00000308316860083128601A53090008E01D1
:1000D000EC308F0078308E0083160C14C030831201
:0600E0008B04712863008F
:02400E003A3F37
:00000001FF
;PIC16F877
;CRC=B385  CREATED="04-Kas-21 20:46"
