:1000000002308A00172A00008C29E13CE931E91806
:10001000201DA0126400D330F934E33432103A10BA
:1000200025320001C334EB347300C230F330F234B4
:10003000EC342E172E002930840083130008031996
:100040002F280130F800F701F70B2428F80B23289C
:100050004A30F700F70B2A282D28800B21280800AA
:10006000300EF039F7000F300805770488000000E3
:1000700008143A28081008000808F700080E0F397D
:10008000F8000800831608108810081183128810E1
:100090000F3083160805F038880083120815000019
:1000A000081400003C207808B00008100000081474
:1000B00000003C207808AF0008100F3083160805B8
:1000C00088008312300EF700F030F70577082F0410
:1000D000F8007808AF00AF1B48282D1C88102D1899
:1000E000881400000811000008102E0EAF000F3019
:1000F000AF052F08B00030202E080F39AF00B00038
:10010000302008002830A3000C30A4000130A500E6
:100110000630A6000810881008110F308316080555
:1001200088000810881008110F308312A9001B20C6
:100130000130A2002208033C031CA6280330B000B3
:1001400030200530A9001B20A20A9A280230B000F6
:1001500030200530A9001B20A2012208033C031C0B
:10016000BD2823302207840083130008A700AD01B7
:100170002708AE004220A20AAD288A110A123C2AA2
:100180002A0BC328C6284030AB00C728AB0101307A
:100190002902AB072B088038AC00AD012C08AE005B
:1001A000422008002808073A0319E0280B3A0319EF
:1001B000E528063A0319ED28023A0319F328F8282E
:1001C0000130A900AA00C020FD28AD010130AE0019
:1001D00042200230A9001B20FD280130A900023076
:1001E000AA00C020FD28AD011030AE004220FD283D
:1001F0000130AD002808AE00422008000B08A30023
:100200008B13831603178C170C1400000000831245
:100210000313A31B8B170318352903170C087F3909
:100220000313A30003170D080313A40003170F08FB
:100230000313A5002308A800D220240803178D006B
:100240000313250803178F0003130B08A6008B1355
:10025000831603178C170C1400000000831203137D
:10026000A61B8B17A20B3529542903170C0D0E0D55
:100270007F390313A30003170D080313A40003170A
:100280000F080313A5002308A800D2202408031791
:100290008D000313250803178F008D0A03198F0A99
:1002A00003100313A20BFE2808002908F8012802F6
:1002B00003185D292808F7006929F7010830AA000A
:1002C000A80DF70D290877020318F700F80DAA0BFF
:1002D000602908002030231E3030A4002208F700D7
:1002E000A21F7A29F709F70A7708A2002D30A40087
:1002F000A31723142208A8006430A9005521770809
:10030000A20030307807A5002208A8000A30A90012
:10031000552130307707A70030307807A600240831
:10032000F7003030250203199929A314A31B2315C4
:10033000AD292408A5002030A4003030260203197E
:10034000A5292314A31BA314AD29031D2314031DE6
:10035000AD292508A6002030A5002319B429A3182B
:10036000B7292318BA29BD292408A800D2202508B6
:10037000A800D2202608A800D2202708A800D22052
:1003800008000B08A2008B13831603178C170C149C
:100390000000000083120313A21B8B1703170C0825
:1003A0007F390319152A0313A20003170D0803133D
:1003B000A30003170F080313A4002208A800D220EB
:1003C000230803178D000313240803178F0003135A
:1003D0000B08A5008B13831603178C170C14000051
:1003E000000083120313A51B8B1703170C0D0E0DB2
:1003F0007F390319152A0313A20003170D080313ED
:10040000A30003170F080313A4002208A800D2209A
:10041000230803178D000313240803178F008D0A88
:1004200003198F0A0313C1290317031308000308D4
:100430001F398300A0016330A10083161F149F148D
:100440001F159F1183130912831290010030F800C9
:1004500092000030831692001F149F141F159F11E5
:1004600083121F10F03097059D050130831685001B
:100470000030880083128228043003178D0000307A
:100480008F0003100B300313A200FE202008A200EF
:100490001830A3006A210130A9000230AA00C02050
:1004A0000B3003178D0000308F0003100A30031348
:1004B000A200FE202108A2001830A3006A216430A7
:1004C000A9001B20A00AA1032008633C03196B2A82
:1004D000A108031D6F2AA0016330A100742A8316AE
:1004E000051483120518752A3C2A0C30A800D22066
:1004F0000130A900AA00C020123003178D0000307F
:100500008F000313C1210130A9000230AA00C020CE
:10051000153003178D0000308F000313C121063002
:10052000A200FA30A9001B20A20B912A0C30A800CF
:0C053000D220831688018312880163002A
:02400E003A3F37
:00000001FF
;PIC16F877
;CRC=2B13  CREATED="04-Kas-21 16:08"
