:1000000000308A004D280000FF00030E8301A1008C
:100010000A08A0008A010408A2007708A300780853
:10002000A4007908A5007A08A600831383128C30F7
:100030008400001D1D280C1934288D308400001CFC
:1000400023280D183728220884002308F7002408E5
:10005000F8002508F9002608FA0020088A00210E79
:100060008300FF0E7F0E09008A110A123A288A11B6
:100070000A124128A70A270886000C118A110A12C1
:100080002328A708031D46280130A700A703270837
:1000900086000D108A110A12232803081F398300D5
:1000A000A70183161F149F141F159F118313091294
:1000B0000030F800831292000030831692001F1463
:1000C0009F141F159F1183121F1083168600063080
:1000D000870083128601870183160C150D14C0302A
:1000E00083128B049701063097009D0105309D0017
:0C00F000960195019C019B017C28630097
:02400E003A3F37
:00000001FF
;PIC16F877
;CRC=9070  CREATED="05-Kas-21 13:57"
