:1000000003308A00752B00008C20C421BA12EC3A10
:1000100000008A2365396936E936BA122E19662B33
:1000200000103430840083130008031925280130A0
:10003000F800F701F70B1A28F80B19284A30F700D7
:10004000F70B20282328800B172808003B0EF039D7
:10005000F7000F30060577048600000006143028EC
:10006000061008000608F700060E0F39F800080011
:100070008316061086100611831286100F30831621
:100080000605F038860083120615000006140000ED
:1000900032207808BB000610000006140000322051
:1000A0007808BA0006100F30831606058600831202
:1000B0003B0EF700F030F70577083A04F8007808AF
:1000C000BA00BA1B3E28381C861038188614000067
:1000D000061100000610390EBA000F30BA053A08B2
:1000E000BB00262039080F39BA00BB0026200800C3
:1000F0002830A7000C30A8000130A9000630AA0063
:100100000610861006110F308316060586000610AD
:10011000861006110F308312B40011200130A600A2
:100120002608033C031C9C280330BB002620053016
:10013000B4001120A60A90280230BB00262005300A
:10014000B4001120A6012608033C031CB328273065
:100150002607840083130008AB00B8012B08B90000
:100160003820A60AA3288A110A12A42B8E30F70081
:100170002708F8002608F900FA01F808031DCA2824
:100180007908F800F9010830F702F808031DCA28B9
:10019000F701D2280310F81BD128F90DF80DF70349
:1001A000CA28F8138A110A12B22B330803194529F9
:1001B000BB00370803194529BB070318E6287F3021
:1001C000BB02031C452903194529EA288130BB07D6
:1001D000031845293B08F700F801F901FA01340832
:1001E000BF00BF173508BE003608BD001830BB0081
:1001F000BC013D1C13293A08FA07031C0529F90A1A
:10020000031D0529F80A0319BC173908F907031C4F
:100210000C29F80A0319BC173808B500B5173508BA
:10022000F8070318BC17BC0DF80CF90CFA0CBF0C3E
:10023000BE0CBD0C0310BB0BF8280130F7070318E8
:100240004529F81B2A29BF0DFA0DF90DF80DF70302
:1002500003194529BF1F3B29FA0A031D3B29F90A47
:10026000031D3B29F80A031D3B29F80CF90CFA0C75
:10027000F70A031945293408BC003808BC06BC1F1E
:100280004329F8174929F8134929F701F801F90119
:10029000FA010800350B4D2950294030B60051298C
:1002A000B60101303402B60736088038B700B8010D
:1002B0003708B900382008003308073A03196A29BB
:1002C0000B3A03196F29063A03197729023A0319E1
:1002D0007D2982290130B400B5004A218729B8015F
:1002E0000130B90038200230B400112087290130D4
:1002F000B4000230B5004A218729B8011030B90096
:10030000382087290130B8003308B90038200800A8
:100310000B08A7008B13831603178C170C1400000F
:10032000000083120313A71B8B170318BF290317A1
:100330000C087F390313A70003170D080313A80047
:1003400003170F080313A9002708B3005C2128082E
:1003500003178D000313290803178F0003130B08DD
:10036000AA008B13831603178C170C1400000000CF
:1003700083120313AA1B8B17A60BBF29DE290317B1
:100380000C0D0E0D7F390313A70003170D0803137F
:10039000A80003170F080313A9002708B3005C2166
:1003A000280803178D000313290803178F008D0AEF
:1003B00003198F0A03100313A60B88290800AE0146
:1003C0000408AD002E10831B2E14270EF038A90050
:1003D000A907E23EAA00323EAC0027080F39AA075F
:1003E000AA07AC07E93EAB00AB07AB07260E0F39F7
:1003F000AB07AC07AB0DAC0DAC09AC0D26080F3943
:10040000AC07A90D0730A8000A30AC07AB03031CEA
:10041000052AAB07AA03031C092AAA07A903031C80
:100420000D2AA907A803031C112A2830840083136E
:1004300007302D052D1384072C30040203192D17C6
:100440000008F700031D2C2A2D1B2C2A2D1A3E2AEA
:10045000AD192C2A20302F2AAD152D123030F70778
:10046000A7010408A6002710831B27147708B300F0
:100470005C2126088400831327188317840A2D1F04
:100480001C2A8A110A12DC2B8318492A3B3084006B
:100490008313F701F801F901FA01BB01BC01BD01A9
:1004A000BE013A083904380437040319872A20307A
:1004B000BF000310B30DB40DB50DB60DBB0DBC0DD3
:1004C000BD0DBE0D3A083E02031D702A39083D02DB
:1004D000031D702A38083C02031D702A37083B02AE
:1004E000031C812A3708BB023808031C380FBC02E2
:1004F0003908031C390FBD023A08031C3A0FBE022B
:100500000314F70DF80DF90DFA0DBF0B592A3B082E
:100510008000840A3C088000840A3D088000840A28
:100520003E08800008000408AB002A08AD0003194B
:10053000B22A2908B6002808B5002708B400260802
:10054000B300BA01B9012030B8008230B700D5201D
:100550007A08A9007908A8007808A7007708A600FB
:10056000AD0B992A2908B6002808B5002708B40061
:100570002608B3003308B63CB300FA013408B700CC
:10058000B4170310B40CB50CB60CFA0CF90CF80C3B
:10059000F70CB30BC12AB71FD82AF709F809F909D4
:1005A000FA09F70A0319F80A0319F90A0319FA0AEA
:1005B0007A08A9007908A8007808A7007708A6009B
:1005C000A91FEF2AAB03AB16A609A709A809A90919
:1005D000A60A0319A70A0319A80A0319A90A3B3096
:1005E000B2009A30B100CA30B000AF010A30AD009D
:1005F0002A080319AB0A83142630840083132908C0
:10060000B6002808B5002708B4002608B300320851
:10061000BA003108B9003008B8002F08B7004422EA
:100620007808F708031D272B2A0A2D020319272B08
:100630002B080319292B0F392D020319212B03181D
:10064000592BAB1B592B2B1B292B2030552B203022
:10065000AB05AB1E372BAB122A08031DAB03770883
:10066000AB002D30B3005C212B08F700AB012A084A
:100670002D02031D452B7708AB002E30B3005C2103
:100680002B08F7002030AB0500303030AB1E552B67
:10069000AB122A08031DAB037708AB002D30B30063
:1006A0005C212B08F700AB013030F7077708B30067
:1006B0005C2183103208B6003108B5003008B40060
:1006C0002F08B300BA01B901B8010A30B7004422BB
:1006D0007A08B2007908B1007808B0007708AF0056
:1006E000AD0BFB2A8A110A12F32B03081F39830072
:1006F00083161F149F141F159F1183130912831251
:1007000090010030F8009200003083169200F03023
:10071000831297059D051F139F1783169F1783123A
:100720001F1483161F109F101F119F110030F80017
:1007300083121F08C73978049F000730F700F70BB2
:100740009F2BA22B000078281F151F19A52B83169D
:100750001E088312A0001E08A1002108A70020087F
:10076000A600B6287A08B6007908B5007808B40063
:100770007708B3000A30BA002830B9002030B8003A
:100780007730B700D5207A08A5007908A40078084A
:10079000A3007708A200043003178D0000308F00FB
:1007A000031005300313A6008821103084002108AF
:1007B000A7002008A600DF29093003178D000030AC
:1007C0008F00031009300313A600882189308400AC
:1007D0002508A9002408A8002308A7002208A600CD
:1007E0000230AA00932A5630B3005C21C830B4000E
:0607F0001120A42B6300A0
:02400E003A3F37
:00000001FF
;PIC16F877
;CRC=227D  CREATED="04-Kas-21 17:51"
