:1000000000308A003C2800000A108A100A1182077A
:100010000034013402340334043405340634073424
:100020000834093424308400831300080319262877
:100030000130F800F701F70B1B28F80B1A284A309B
:10004000F700F70B21282428800B18280800250822
:10005000F801240203182F282408F7003B28F70191
:100060000830A600A40DF70D250877020318F70045
:10007000F80DA60B3228080003081F3983008316E9
:100080001F149F141F159F118313091283129001CF
:100090000030F80092000030831692001F149F1465
:1000A0001F159F1183121F10F03097059D05033017
:1000B00083168500003086008312A101A201A301EE
:1000C000230804201038A40086001E30A40012204B
:1000D000220804202038A40086001E30A40012202C
:1000E000051C98282108633C03199828A10A2108B7
:1000F000A4000A30A50027207708A3002108A40047
:100100000A30A50027207808A200051C982823089B
:1001100004201038A40086001E30A40012202208FB
:1001200004202038A40086001E30A4001220852858
:10013000851CBF28A1080319BF28A1032108A4001A
:100140000A30A50027207708A3002108A4000A3060
:10015000A50027207808A200851CBF2823080420BA
:100160001038A40086001E30A400122022080420AB
:100170002038A40086001E30A4001220AC2860287D
:0201800063001A
:02400E003A3F37
:00000001FF
;PIC16F877
;CRC=5117  CREATED="04-Kas-21 15:50"
