:1000000000308A0056280000FF00030E8301A10083
:100010000A08A0008A010408A2007708A300780853
:10002000A4007908A5007A08A600831383128B1D0B
:100030001B280B182C28220884002308F70024080A
:10004000F8002508F9002608FA0020088A00210E89
:100050008300FF0E7F0E09008A110A122F28061A4C
:100060000614861A8614061B0615861B8615043090
:10007000A700FA30A8002830840083130008031971
:100080004F280130F800F701F70B4428F80B4328FC
:100090004A30F700F70B4A284D28800B4128A70B60
:1000A000392886010B108A110A121B2803081F39F0
:1000B000830083161F149F141F159F1183130912A9
:1000C000831290010030F8009200003083169200F5
:1000D0001F149F141F159F1183121F10F0309705D6
:1000E0009D0583168600831286018B15C0308B0414
:0400F000752863000C
:02400E003A3F37
:00000001FF
;PIC16F877
;CRC=4501  CREATED="04-Kas-21 20:17"
